:100000000C9434000C9449000C9449000C94490061
:100010000C9449000C9449000C9449000C9449003C
:100020000C9449000C9449000C9449000C9449002C
:100030000C9449000C9449000C9449000C9449001C
:100040000C9449000C9449000C9449000C9449000C
:100050000C9449000C9449000C9449000C944900FC
:100060000C9449000C94490011241FBECFEFD4E03A
:10007000DEBFCDBF11E0A0E0B1E0E6EDF1E002C0EF
:1000800005900D92A235B107D9F70E9466000C9435
:10009000E9000C940000FC0130E020E080E4261729
:1000A000370768F0089500004F5F5F4F4E175F07F6
:1000B000D1F79BB198279BB92E0F3F1FF0CF50E08F
:1000C00040E0F4CF00000197E9F70895CF93DF9364
:1000D000CDB7DEB7E6970FB6F894DEBF0FBECDBF43
:1000E000569A0E94B70086E391E00E94D60082E112
:1000F000E0E0F1E0DE01959601900D928A95E1F73E
:1001000084E2E2E1F1E0DE01119601900D928A9520
:10011000E1F700E018E70E94CF00F82E8EE40E947D
:10012000C800FE01B59690E080E021912F1111C02A
:10013000880F991FE1E0F0E0EC0FFD1FE80FF91FB9
:10014000B801808191810E944B00E5CF00E010EF63
:10015000E2CF01968231910541F78BE5F816C9F29D
:100160008DE5F81699F3C8010E946200D4CF109271
:10017000C5008CE08093C400E0ECF0E080818260F8
:10018000808388E18093C10086E08093C200089557
:100190009091C00095FFFCCF8093C6000895809198
:1001A000C00087FFFCCF8091C60008950F931F9376
:1001B000CF938C01C0E0F801EC0FF11D808181111B
:1001C00004C0CF911F910F9108950E94C800CF5F86
:0601D000F2CFF894FFCF0E
:1001D600617773656466746779686A696B6F6C705A
:1001E6003B271304D803A1036D033B030D03E10270
:1001F600B80291026C02490228020902EC01D00100
:10020600B6019E0186012D2D2D2D2D205365726977
:10021600616C204F7267616E202D2D2D2D2D2D0DB9
:020226000A00CC
:00000001FF
