:100000000C9434000C943E000C943E000C943E0082
:100010000C943E000C943E000C943E000C943E0068
:100020000C943E000C943E000C943E000C943E0058
:100030000C943E000C943E000C943E000C943E0048
:100040000C943E000C943E000C943E000C943E0038
:100050000C943E000C943E000C943E000C943E0028
:100060000C943E000C943E0011241FBECFEFD8E04C
:10007000DEBFCDBF0E9451000C9462000C940000C2
:100080004A990DC089EF90E00197F1F700C0000098
:1000900089B182FB882780F991E08927089580E063
:1000A00008955A9A81E084B9D1E00E9440008823E3
:1000B00039F0C111FACF85B18D2785B9C1E0F5CFEF
:0800C000C0E0F3CFF894FFCF7C
:00000001FF
