:100000000C9434000C943E000C943E000C943E0082
:100010000C943E000C943E000C943E000C943E0068
:100020000C943E000C943E000C943E000C943E0058
:100030000C943E000C943E000C943E000C943E0048
:100040000C943E000C943E000C943E000C943E0038
:100050000C943E000C943E000C943E000C943E0028
:100060000C943E000C943E0011241FBECFEFD8E04C
:10007000DEBFCDBF0E9440000C94D9000C9400005C
:100080008FEF84B964E372E181E090E0E5E0F8E0AD
:1000900030E020E045B1DC01022E01C0AA0F0A9435
:1000A000EAF74A2B45B9A1E0B3E51197F1F700C093
:1000B00000002F5F3F4F2830310561F750E040E0EE
:1000C000A5B19C01042E01C0220F0A94EAF72095E5
:1000D0002A2325B9A1E0B3E51197F1F700C000008C
:1000E0004F5F5F4F4830510559F7B7E02CE431E0DE
:1000F000B15020403040E1F700C0000027E030E080
:1001000045B1DC01022E01C0AA0F0A94EAF74A2B7E
:1001100045B9A1E0B3E51197F1F700C00000215007
:10012000310970F747E050E0A5B19C01042E01C0F1
:10013000220F0A94EAF720952A2325B9A1E0B3E516
:100140001197F1F700C000004150510968F727E00E
:100150003CE441E0215030404040E1F700C0000065
:100160002BE46E9FA0016F9F500D7E9F500D1124B8
:10017000BA01675E794C35B1472F4770DC0102C088
:10018000AA0FBB1F4A95E2F73A2735B9A1E0B3E5BC
:100190001197F1F700C00000215019F715B8B7E02A
:1001A0002CE431E0B15020403040E1F700C00000C5
:0601B0006FCFF894FFCFB1
:00000001FF
